:100000000C942A000C9434000C9434000C943400AA
:100010000C9434000C9434000C9434000C94340090
:100020000C9434000C9434000C9434000C94340080
:100030000C9434000C9434000C9434000C94340070
:100040000C9434000C9434000C9434000C94340060
:100050000C94340011241FBECFE5D4E0DEBFCDBF29
:100060000E9436000C9445000C94000010BC83E301
:1000700089B988E18AB980B5866880BD5F9BFECF6B
:0E0080008CB15D9BFECF8CB9F9CFF894FFCF09
:00000001FF
