:100000000C942B000C9453000C9453000C9453004C
:100010000C9453000C9453000C94F30C0C94530068
:100020000C9453000C9453000C9453000C94530004
:100030000C9453000C9453000C9453000C945300F4
:100040000C9453000C9453000C9453000C945300E4
:100050000C945300530D11241FBECFE5D4E0DEBF36
:10006000CDBF13E0A0E6B0E0E8E3F1E202C0059006
:100070000D92A835B107D9F724E0A8E5B3E001C097
:100080001D92A030B207E1F710E0CBE2D0E004C04F
:100090002197FE010E94960DCA32D107C9F70E942E
:1000A000310C0C949A100C940000442311F0D99A4E
:1000B00001C0D998862F82958F7080FF02C0DB9A8D
:1000C00001C0DB9881FF02C0DC9A01C0DC9882FF8E
:1000D00002C0DD9A01C0DD98887011F0DE9A01C07F
:1000E000DE98DA9885E08A95F1F70000DA9A95E0D3
:1000F0009A95F1F70000DA988FE891E00197F1F70F
:1001000000C00000442311F0D99A01C0D99860FFC3
:1001100002C0DB9A01C0DB9861FF02C0DC9A01C01B
:10012000DC9862FF02C0DD9A01C0DD9863FF02C067
:10013000DE9A01C0DE98DA9895E09A95F1F7000012
:10014000DA9A85E08A95F1F70000DA988FE891E075
:100150000197F1F700C000000895CF93DF93EC0101
:1001600088819FEF980F923038F0843029F082E038
:10017000888380E1898308C089818B7F803121F069
:1001800082E0888380E18983D29AD19AD39AD49AE3
:10019000D59AD69A8FE79BEB0197F1F700C0000044
:1001A00040E063E3CE010E9455008FE39FE1019799
:1001B000F1F700C0000040E063E3CE010E9455006B
:1001C0008FE39FE10197F1F700C0000040E063E397
:1001D000CE010E9455008FE39FE10197F1F700C027
:1001E000000040E062E3CE010E9455008FE39FE1F2
:1001F0000197F1F700C0000040E068E2CE010E94E4
:1002000055008FE39FE10197F1F700C0000040E047
:1002100066E0CE010E9455008FE39FE10197F1F760
:1002200000C0000040E06CE0CE010E9455008FE36A
:100230009FE10197F1F700C0000040E061E0CE01CE
:100240000E9455008FE39FE10197F1F700C0000085
:1002500040E062E0CE010E9455008FE39FE10197EC
:10026000F1F700C00000DF91CF910895CF93DF93A5
:10027000EC0140E061E00E9455008FE39FE10197AF
:10028000F1F700C0000040E062E0CE010E9455009E
:100290008FE39FE10197F1F700C00000DF91CF915C
:1002A0000895FC0120812130A1F0223021F4662341
:1002B00021F160EC17C02430A9F4FC012181203128
:1002C00051F0662351F0613051F0623051F064ED2D
:1002D00009C060E807C064ED05C060E803C060ECD9
:1002E00001C064E9640F40E00E9455008FE39FE184
:1002F0000197F1F700C00000089560E8F3CFBF92C6
:10030000CF92DF92EF92FF920F931F93CF93DF93E1
:100310008C0179010E94510180E1E81687E2F8061C
:1003200060F19701329522952F7023273F70232784
:10033000A7E4B3E00E94730DEC01D695C795D6955E
:10034000C795D695C7956C2F605D40E1C8010E94A6
:100350005500CC23A1F09C2F9150F1F78C2F8150A8
:1003600020EF38ED829FE001839FD00D1124C7015B
:1003700080519742C80FD91F03C0E70101C0E701B0
:1003800088EEE81683E0F80658F19E013695279529
:100390003695279536952795A5ECB0E20E94730D0A
:1003A0006C01D694C794D694C794D694C794D69427
:1003B000C79460E36C0D40E1C8010E945500CC2059
:1003C00079F09C2D9150F1F7C85ED340CA9428E192
:1003D0003CEFC29EC001C39E900D1124C80FD91FCF
:1003E00084E6E816F104F8F09E01369527953695D7
:1003F0002795ABE7B4E10E94730D6C01D694C794C6
:1004000060E36C0D40E1C8010E945500CC2059F01A
:100410009C2D9150F1F7C456D109CA9484E6C89E28
:10042000C019D10911248AE0E816F104F0F09E0108
:10043000ADECBCEC0E94730D7C01F694E794F6944D
:10044000E794F694E79460E36E0D40E1C8010E94E2
:100450005500EE2051F09E2D9150F1F72A97EA9425
:100460008AE0E89EC019D10911246C2F605D40E13B
:10047000C8010E945500DF91CF911F910F91FF900D
:10048000EF90DF90CF90BF900895EF92FF920F937F
:100490001F93CF93DF93FB01442301F16081662317
:1004A000E9F0DC0111962C912223C1F0D42F8F01A9
:1004B0007C010F5F1F4FC0E00AC0F80161918F01FE
:1004C000662361F0D70111968C918C1739F040E1C9
:1004D000C7010E945500CF5FCD13EFCFDF91CF91C1
:1004E0001F910F91FF90EF900895EF92FF920F935D
:1004F0001F93CF93DF938C017901FC01C181D0E080
:10050000C41BD1090E9451014C2FB701C8010E94A0
:100510004502DF91CF911F910F91FF90EF900895C9
:10052000959894988D988C9880E008958D988C98E3
:1005300085E38A95F1F700008C9A949885E38A9573
:10054000F1F700008D9A959885E38A95F1F7000000
:1005500008958D9A95988C9A949885E38A95F1F7E9
:1005600000008D9895E39A95F1F700008C988FE341
:100570009CE90197F1F700C00000089528E030E001
:1005800080E8982F962311F08C9802C08C9A94984A
:1005900095E39A95F1F700008D9895E39A95F1F718
:1005A00000008D9A959895E39A95F1F7000086954D
:1005B0002150310931F78C9885E38A95F1F70000D5
:1005C0008D9895E39A95F1F7000080B3829581703C
:1005D00095E39A95F1F700008D9A959895E39A9591
:1005E000F1F7000008950F931F93CF938C01C42F50
:1005F0000E94BE02CC2321F0C13039F080E006C059
:10060000C8010E94A90281E001C081E0CF911F9141
:100610000F9108958C9845E34A95F1F7000028E082
:1006200030E080E090E88D9845E34A95F1F70000CE
:100630008C988499892B8D9A959845E34A95F1F782
:10064000000096952150310971F7611102C08C9814
:1006500002C08C9A949895E39A95F1F700008D98D2
:1006600045E34A95F1F700008D9A959895E39A95A0
:10067000F1F7000008950F931F93CF93DF93EC01E0
:100680008B01442319F0413059F011C060E00E9401
:100690000A03F8018083CE010E94A90281E008C00C
:1006A00061E00E940A03F801808381E001C080E0DC
:1006B000DF91CF911F910F9108951F93CF93DF93F7
:1006C000EC01162F442319F0413029F00DC00E948F
:1006D000BE0281E00AC0672F0E94BE02612FCE01D8
:1006E0000E94BE0281E001C080E0DF91CF911F91A6
:1006F0000895EF92FF920F931F93CF93DF93EC0136
:10070000162F7A01022F0E949602612F660FCE01EA
:100710000E94BE02402FB701CE010E945D03DF910F
:10072000CF911F910F91FF90EF9008951F93CF935A
:10073000DF93EC01142F2981AB0168810E947903BA
:1007400040E0612FCE010E94F30281E0DF91CF9162
:100750001F910895EF92FF920F931F93CF93DF9312
:100760008C01C62F7A01D22F0E949602CC0F6C2FDB
:10077000C8010E94BE024D2FB701C8010E945D034F
:10078000C8010E9496026C2F6160C8010E94BE02DF
:1007900080E0DF91CF911F910F91FF90EF9008952E
:1007A000CF92DF92EF92FF920F931F93CF937C0132
:1007B0006A01022FFC012181AB0160810E94AA0322
:1007C00010E001501109101611067CF4C0E0B601CA
:1007D0006C0F711D41E0C7010E943B03CF5FEC2FFE
:1007E000F0E0E017F1079CF301C0C0E0B6016C0F28
:1007F000711D40E0C7010E943B038C2FCF911F91D8
:100800000F91FF90EF90DF90CF9008958FE085BB20
:1008100080EF84BB8AE18A95F1F700C0989B08C0FD
:10082000999B08C09A9B08C09B991DC08CE005C08D
:1008300080E003C084E001C088E090EF95BB9FE0BA
:1008400094BB9AE19A95F1F700C09C9B0FC09D99CB
:1008500002C08F5F08959E9902C08E5F08959F9990
:1008600004C08D5F08958FEF08958FEF08955F9B0B
:10087000FECF8CB108958CB95D9BFECF0895CF93C8
:10088000DF93EC018881882331F021960E943B049C
:1008900089918111FBCFDF91CF91089580918A03D7
:1008A00090918B032AE030E0B9010E945F0D6295C0
:1008B0007295707F7627607F7627AB01480F591FAE
:1008C00050937D0340937C0380918803909189032A
:1008D000B9010E945F0D62957295707F7627607FE7
:1008E0007627860F971F90937B0380937A038091DE
:1008F000860390918703B9010E945F0D62957295FE
:10090000707F7627607F7627860F971F90937903F5
:10091000809378038091840390918503B9010E94AC
:100920005F0D62957295707F7627607F7627860FC0
:10093000971F909377038093760380918203909121
:100940008303B9010E945F0D62957295707F7627CF
:10095000607F7627860F971F9093750380937403AB
:100960008091800390918103B9010E945F0D62958F
:100970007295707F7627607F7627860F971F9093FA
:1009800073038093720380917E0390917F03B9017A
:100990000E945F0D62957295707F7627607F762743
:1009A000860F971F909371038093700360E070E04F
:1009B0008CEF93E00E94960340917A0361E070E02F
:1009C0008CEF93E00E9496034091780362E070E020
:1009D0008CEF93E00E9496034091760363E070E011
:1009E0008CEF93E00E9496034091740364E070E002
:1009F0008CEF93E00E9496034091720365E070E0F3
:100A00008CEF93E00E9496034091700366E070E0E3
:100A10008CEF93E00E9496030895EF92FF920F935C
:100A20001F93CF93DF9388EC90E00E943F04CFEABE
:100A3000D3E00BEC13E07E010E9437048093F803AF
:100A400090E0F701819391937F01E017F107A1F7FF
:100A500088EC90E00E943F040E9437048093F803E2
:100A600090E0899399930C171D07B1F787ED90E0FB
:100A70000E943F04C2EED3E002EF13E00E9437046D
:100A80008093F80390E089939993C017D107B1F749
:100A90008FEF90E00E943F040E9437048093F80398
:100AA0000E9437048093F803C2EFD3E090E099836B
:100AB00088830E9437048093F80390E09B838A83A5
:100AC00089E291E00E943F04C2EDD3E002EE13E020
:100AD0000E9437048093F80390E089939993C0179C
:100AE000D107B1F782E591E00E943F042EE631E0A4
:100AF00040E060E08EEF93E00E9475022FE731E066
:100B000040E061E08EEF93E00E94750202EE13E098
:100B1000F80187858F9386858F9385858F9384854C
:100B20008F93C0E9D1E0DF93CF938AEA93E09F935C
:100B30008F930E94C20DF80181858F9380858F93DA
:100B400087818F9386818F93DF93CF9385EA93E09C
:100B50009F938F930E94C20DF80183818F938281AE
:100B60008F9381818F9380818F93DF93CF9380EADE
:100B700093E09F938F930E94C20DE2EFF3E0838195
:100B80008F9382818F9381818F9380818F93DF9365
:100B9000CF938BE993E09F938F930E94C20DEDB7A3
:100BA000FEB7B0960FB6F894FEBF0FBEEDBF02EDD4
:100BB00013E0F80183818F9382818F9381818F93DA
:100BC00080818F93DF93CF9386E993E09F938F93F8
:100BD0000E94C20DF80181858F9380858F93878154
:100BE0008F9386818F93DF93CF9381E993E09F93D7
:100BF0008F930E94C20DF80187858F9386858F930E
:100C000085858F9384858F93DF93CF938CE893E0D2
:100C10009F938F930E94C20D8AEA93E00E949C0DDD
:100C200090938B0380938A0385EA93E00E949C0D46
:100C3000909389038093880380EA93E00E949C0D3F
:100C400090938703809386038BE993E00E949C0D29
:100C5000909385038093840386E993E00E949C0D22
:100C6000909383038093820381E993E00E949C0D1B
:100C700090938103809380038CE893E00E949C0D05
:100C800090937F0380937E030E944E048FEF97EA38
:100C9000E1E681509040E040E1F700C000008EEFB7
:100CA00093E00E943601FFEF29E688E1F1502040F1
:100CB0008040E1F700C000000E944E049FEFE7EA89
:100CC000F1E69150E040F040E1F700C000008EEF07
:100CD00093E00E9436012FEF89E698E12150804091
:100CE0009040E1F700C00000EDB7FEB778960FB670
:100CF000F894FEBF0FBEEDBFDF91CF911F910F9112
:100D0000FF90EF9008950F931F93CF93DF930E946E
:100D1000060490E09093FB038093FA038091D10343
:100D2000823008F04DC025E931E040E060E08EEF10
:100D300093E00E9475028091FA039091FB038F3F2C
:100D40009105F1F1880F991FFC01EB56FF4F2081AF
:100D500031812093F9034091D1033327E42FF0E050
:100D6000EE0FFF1FE155FC4F3183208361E08EEFD2
:100D700093E00E947F0126EA31E042E061E08EEFDD
:100D800093E00E9475028091D1038F5F8093D1031D
:100D90002FEF89E698E1215080409040E1F700C0B4
:100DA00000008091D103823021F48EEF93E00E9405
:100DB00036010E94060490E09093FB038093FA03AF
:100DC0008091D1038250823008F045C025EB31E09C
:100DD00040E060E08EEF93E00E9475028091FA039C
:100DE0009091FB038F3F9105B1F1880F991FFC0192
:100DF000EB56FF4F208131812093F9034091D103BD
:100E00003327E42FF0E0EE0FFF1FE155FC4F318355
:100E1000208361E08EEF93E00E947F018091D103F7
:100E20008F5F8093D1032FEF89E698E121508040B6
:100E30009040E1F700C000008091D103843021F49C
:100E40008EEF93E00E9436010E94060490E090939A
:100E5000FB038093FA038091D1038450823008F021
:100E600045C024EC31E040E060E08EEF93E00E946A
:100E700075028091FA039091FB038F3F9105B1F1C8
:100E8000880F991FFC01EB56FF4F20813181209381
:100E9000F9034091D1033327E42FF0E0EE0FFF1F59
:100EA000E155FC4F3183208361E08EEF93E00E9497
:100EB0007F018091D1038F5F8093D1032FEF89E66B
:100EC00098E1215080409040E1F700C000008091FF
:100ED000D103863021F48EEF93E00E9436010E9408
:100EE000060490E09093FB038093FA038091D10372
:100EF0008650823008F045C024ED31E040E060E0EB
:100F00008EEF93E00E9475028091FA039091FB03AB
:100F10008F3F9105B1F1880F991FFC01EB56FF4FF0
:100F2000208131812093F9034091D1033327E42FAD
:100F3000F0E0EE0FFF1FE155FC4F3183208361E0AD
:100F40008EEF93E00E947F018091D1038F5F8093A9
:100F5000D1032FEF89E698E1215080409040E1F7DE
:100F600000C000008091D103883021F48EEF93E01F
:100F70000E9436010E94060490E09093FB03809348
:100F8000FA038091D1038850823008F045C023EEE7
:100F900031E040E060E08EEF93E00E9475028091C6
:100FA000FA039091FB038F3F9105B1F1880F991FD0
:100FB000FC01EB56FF4F208131812093F9034091D2
:100FC000D1033327E42FF0E0EE0FFF1FE155FC4F74
:100FD0003183208361E08EEF93E00E947F01809156
:100FE000D1038F5F8093D1032FEF89E698E12150E1
:100FF00080409040E1F700C000008091D1038A302A
:1010000021F48EEF93E00E9436010E94060490E0E6
:101010009093FB038093FA038091D1038A5082302E
:1010200008F045C023EF31E040E060E08EEF93E050
:101030000E9475028091FA039091FB038F3F910506
:10104000B1F1880F991FFC01EB56FF4F20813181D0
:101050002093F9034091D1033327E42FF0E0EE0F02
:10106000FF1FE155FC4F3183208361E08EEF93E059
:101070000E947F018091D1038F5F8093D1032FEF76
:1010800089E698E1215080409040E1F700C00000DF
:101090008091D1038C3021F48EEF93E00E943601D1
:1010A0000E94060490E09093FB038093FA038091E2
:1010B000D1038C50823008F045C022E032E040E09D
:1010C00060E08EEF93E00E9475028091FA039091A8
:1010D000FB038F3F9105B1F1880F991FFC01EB567F
:1010E000FF4F208131812093F9034091D1033327B1
:1010F000E42FF0E0EE0FFF1FE155FC4F318320831A
:1011000061E08EEF93E00E947F018091D1038F5FB9
:101110008093D1032FEF89E698E1215080409040E1
:10112000E1F700C000008091D1038E3021F48EEFF2
:1011300093E00E9436010E94060490E09093FB0326
:101140008093FA038091D1038E3009F067C121E1C9
:1011500032E040E060E08EEF93E00E9475022FE104
:1011600032E040E061E08EEF93E00E9475028091F2
:10117000FA039091FB030E9739F484E18093D10335
:101180008EEF93E00E9436018091FA039091FB0369
:101190000C9709F043C18EEF93E00E9436012FEFC8
:1011A00089E698E1215080409040E1F700C00000BE
:1011B0001092D1030E94060490E09093FB03809369
:1011C000FA032CC12FEF83ED90E321508040904033
:1011D000E1F700C000008EEF93E00E9436012FEF90
:1011E00089E698E1215080409040E1F700C000007E
:1011F00085E18093D1032AC02FE232E040E060E035
:101200008EEF93E00E9475029E0146E061E08EEF52
:1012100093E00E947F0120E432E049E061E08EEF3C
:1012200093E00E9475022FEF80E792E0215080400A
:101230009040E1F700C000002196C536D105E1F6E7
:10124000C1CF8091D103853109F011C12EE631E083
:1012500040E060E08EEF93E00E9475022FE731E0FE
:1012600040E061E08EEF93E00E947502CFEAD3E0A8
:101270008B818F938A818F9389818F9388818F93BC
:1012800000E911E01F930F938AEA93E09F938F93F5
:101290000E94C20D8F818F938E818F938D818F934A
:1012A0008C818F931F930F9385EA93E09F938F9385
:1012B0000E94C20D8B858F938A858F9389858F932A
:1012C00088858F931F930F9380EA93E09F938F936A
:1012D0000E94C20D8F858F938E858F938D858F93FE
:1012E0008C858F931F930F938BE993E09F938F933C
:1012F0000E94C20D8DB79EB780960FB6F8949EBF20
:101300000FBE8DBF8B898F938A898F9389898F9325
:1013100088898F931F930F9386E993E09F938F9310
:101320000E94C20D8F898F938E898F938D898F93A1
:101330008C898F931F930F9381E993E09F938F93F1
:101340000E94C20D8B8D8F938A8D8F93898D8F9381
:10135000888D8F931F930F938CE893E09F938F93C7
:101360000E94C20D8AEA93E00E949C0D90938B0329
:1013700080938A0385EA93E00E949C0D90938903F1
:101380008093880380EA93E00E949C0D90938703EA
:10139000809386038BE993E00E949C0D90938503D4
:1013A0008093840386E993E00E949C0D90938303CD
:1013B0008093820381E993E00E949C0D90938103C6
:1013C000809380038CE893E00E949C0D90937F03B0
:1013D00080937E030E944E049FEF27EA81E691509E
:1013E00020408040E1F700C000008EEF93E00E94B3
:1013F00036019FEF29E688E1915020408040E1F7D7
:1014000000C0000089E18093D1038DB79EB7489654
:101410000FB6F8949EBF0FBE8DBF29C08091D10337
:10142000843109F00ECF2FE232E040E060E08EEF31
:1014300093E00E94750220E030E046E061E08EEF2C
:1014400093E00E947F0120E432E049E061E08EEF0A
:1014500093E00E9475029FEF20E782E091502040C8
:101460008040E1F700C00000C1E0D0E0C5CEDF91D0
:10147000CF911F910F91089587B38FEF87BB8F9AFC
:101480000895C79A81E0982F9A95F1F7C7988A95A1
:10149000F1F70895C49AC4980895C59AC598089517
:1014A000C69AC6980895979A97980895CF93DF9310
:1014B000D82FC8E0DD2314F4C09A01C0C0980E9460
:1014C0004A0ADD0FC150B1F7DF91CF910895CF9354
:1014D000DF93D82FC8E0DD2314F4C19A01C0C1986E
:1014E0000E944D0ADD0FC150B1F7DF91CF910895F1
:1014F000CF93DF93D82FC8E0DD2314F4C29A01C044
:10150000C2980E94500ADD0FC150B1F7DF91CF9110
:101510000895CF93DF93D82FC8E0DD2314F4C39A46
:1015200001C0C3980E94530ADD0FC150B1F7DF918B
:10153000CF910895CF93DF93C8E5D3E0EA81F0E03F
:10154000E657FF4F80810E94560AEB81F0E0E65794
:10155000FF4F80810E94670AEC81F0E0E657FF4F61
:1015600080810E94780AED81F0E0E657FF4F80818C
:101570000E94890A0E94410ADF91CF9108958091CB
:1015800069032DEE280F91E02D3008F090E09111C5
:1015900006C091E0823208F490E0992391F099E33B
:1015A000899F912D112496959695990F292F220F99
:1015B000220F220F920F891B80936F0380E88BBB51
:1015C00021C0811106C082E180936F0381E08BBB53
:1015D00019C0803231F488E080936F0380E88BBBC0
:1015E00011C0813231F489E080936F0380E88BBBB6
:1015F00009C0823119F480E88BBB04C080936F036B
:1016000081E08BBBA7E6B3E08C91E8E5F3E0982F8F
:101610009F70908390E09595879595958795959582
:101620008795959587958770818311968C911197F1
:10163000982F9F70928390E09595879595958795C3
:1016400095958795959587958770838380916F038E
:10165000982F9F70948390E09595879595958795A1
:1016600095958795959587958770858313968C9129
:101670001397982F9F70968390E0959587959595F1
:101680008795959587959595879587708783149607
:101690008C911497982F9F70908790E095958795DF
:1016A0009595879595958795959587958770818769
:1016B00015968C911597982F9F70928790E095952D
:1016C0008795959587959595879595958795877035
:1016D000838716968C91982F9F70948790E09595AC
:1016E0008795959587959595879595958795877015
:1016F00085870895CF93DF93C8E5D3E0EE81F0E0CE
:10170000EE0FFF1FE658FF4F208131814CE060E073
:101710008EEF93E00E9475022D8130E042E060E0A0
:101720008EEF93E00E947F012C8130E043E060E087
:101730008EEF93E00E947F0122E432E044E060E01B
:101740008EEF93E00E9475022B8130E045E060E06F
:101750008EEF93E00E947F012A8130E046E060E056
:101760008EEF93E00E947F01EA85E1110FC0809126
:101770006303813069F5209174003091750040E079
:1017800061E08EEF93E00E9475022FC0E13079F4A2
:10179000809163038130E1F42091760030917700ED
:1017A00040E061E08EEF93E00E9475021EC0E230DF
:1017B00079F480916303813059F42091780030915D
:1017C000790040E061E08EEF93E00E9475020DC069
:1017D000F0E0EE0FFF1FE05AFF4F2081318140E023
:1017E00061E08EEF93E00E947502C8E5D3E02985A1
:1017F00030E049E061E08EEF93E00E947F012885B0
:1018000030E04AE061E08EEF93E00E947F0124E443
:1018100032E04BE061E08EEF93E00E947502209190
:10182000940030E04CE061E08EEF93E00E947F0195
:101830002D8530E04EE061E08EEF93E00E947F0165
:101840002C8530E04FE061E08EEF93E00E947F0155
:101850008FE39CE90197F1F700C00000DF91CF9181
:10186000089581E88ABBD8988FEF84BB15BA8CEFB6
:1018700093E00E9490028EEF93E00E94AD000E94E0
:101880003C0A2FEF81EE94E0215080409040E1F738
:1018900000C0000026E432E040E060E08EEF93E01C
:1018A0000E9475022FEF83ED90E32150804090401D
:1018B000E1F700C000008EEF93E00E943601C0E027
:1018C000D0E02FE232E040E060E08EEF93E00E9453
:1018D00075029E0147E061E08EEF93E00E947F0178
:1018E00020E432E04AE061E08EEF93E00E9475026E
:1018F0002FEF80E792E0215080409040E1F700C058
:1019000000002196C536D105E1F62FEF83ED90E377
:10191000215080409040E1F700C000008EEF93E03E
:101920000E9436012FEF89E698E1215080409040D7
:10193000E1F700C00000789484E08EBD80E189BFAB
:1019400084E294EF9BBD8ABD0E94060490E09093D0
:10195000FB038093FA0387E592E00E943F040E9414
:1019600037048093F803813411F40E940D058091AF
:10197000FA039091FB03039789F40E94060490E018
:101980009093FB038093FA038091D103873130F465
:101990000E9483068091D1038731D0F38091FA03AE
:1019A0009091FB03079749F40E94060490E09093FE
:1019B000FB038093FA030E940D0528E047E653E0FD
:1019C00060E070E08CEF93E00E94D0030E94BF0AB9
:1019D0000E949A0A0E947A0B8FE99FE00197F1F723
:1019E00000C00000B1CF1F920F920FB60F921124CA
:1019F0002F938F939F93809169032DEE280F91E091
:101A00002D3008F090E0911106C091E0823208F488
:101A100090E0992391F099E3899F912D1124969557
:101A20009695990F292F220F220F220F920F891BB3
:101A300080936F0380E88BBB21C0811106C082E1D7
:101A400080936F0381E08BBB19C0803231F488E052
:101A500080936F0380E88BBB11C0813231F489E041
:101A600080936F0380E88BBB09C0823119F480E852
:101A70008BBB04C080936F0381E08BBB95B381E087
:101A8000892785BB2FEF89E698E12150804090405F
:101A9000E1F700C000009F918F912F910F900FBE32
:101AA0000F901F901895EEEFF3E082E0808380E1C5
:101AB0008183ECEFF3E088E680831182089597FB41
:101AC000072E16F4009407D077FD09D00E94820DEE
:101AD00007FC05D03EF4909581959F4F0895709531
:101AE00061957F4F0895A29FB001B39FC001A39F4E
:101AF000700D811D1124911DB29F700D811D112447
:101B0000911D0895AA1BBB1B51E107C0AA1FBB1F53
:101B1000A617B70710F0A61BB70B881F991F5A9579
:101B2000A9F780959095BC01CD010895EE0FFF1F98
:101B30000590F491E02D0994FC0188279927E894F9
:101B400021912032E9F3293010F02E30C8F32B32E6
:101B500041F02D3239F4689404C00E94BA0D820F0E
:101B6000911D219120532A30C0F31EF49095819548
:101B70009F4F08957AE0979F902D879F802D910D1C
:101B800011240895AEE0B0E0E8ECFDE00C94711093
:101B90000D891E8986E08C831A8309838FEF9FE766
:101BA0009E838D83AE01475E5F4F6F89788DCE0136
:101BB00001960E94E50D2F813885F801E20FF31F91
:101BC00010822E96E4E00C948D10ACE0B0E0EBEEC9
:101BD000FDE00C9463107C016B018A01FC0117820B
:101BE0001682838181FFBDC1CE0101964C01F701B0
:101BF0009381F60193FD859193FF81916F01882375
:101C000009F4ABC1853239F493FD859193FF81913D
:101C10006F01853229F4B70190E00E94CD0FE7CF24
:101C2000512C312C20E02032A0F48B3269F030F4BA
:101C3000803259F0833269F420612CC08D3239F042
:101C4000803339F4216026C02260246023C02860DC
:101C500021C027FD27C030ED380F3A3078F426FF39
:101C600006C0FAE05F9E300D1124532E13C08AE0A7
:101C7000389E300D1124332E20620CC08E3221F498
:101C800026FD6BC1206406C08C3611F4206802C0AA
:101C9000883641F4F60193FD859193FF81916F01A0
:101CA0008111C1CF982F9F7D9554933028F40C5FFC
:101CB0001F4FFFE3F9830DC0833631F0833771F096
:101CC000833509F05BC022C0F801808189830E5FF3
:101CD0001F4F44244394512C540115C03801F2E0A5
:101CE0006F0E711CF801A080B18026FF03C0652D26
:101CF00070E002C06FEF7FEFC5012C870E94C20F1A
:101D00002C0183012C852F77222E17C03801F2E099
:101D10006F0E711CF801A080B18026FF03C0652DF5
:101D200070E002C06FEF7FEFC5012C870E94B70FF4
:101D30002C012C852068222E830123FC1BC0832DBF
:101D400090E048165906B0F4B70180E290E00E9496
:101D5000CD0F3A94F4CFF50127FC859127FE8191B0
:101D60005F01B70190E00E94CD0F31103A94F1E08D
:101D70004F1A51084114510471F7E5C0843611F02F
:101D8000893639F5F80127FF07C0608171818281AA
:101D900093810C5F1F4F08C060817181072E000C7A
:101DA000880B990B0E5F1F4F2F76722E97FF09C07D
:101DB00090958095709561957F4F8F4F9F4F2068CC
:101DC000722E2AE030E0A4010E940510A82EA81867
:101DD00044C0853729F42F7EB22E2AE030E025C09A
:101DE000F22FF97FBF2E8F36C1F018F4883579F0C5
:101DF000B4C0803719F0883721F0AFC02F2F206191
:101E0000B22EB4FE0DC08B2D8460B82E09C024FF05
:101E10000AC09F2F9660B92E06C028E030E005C0AA
:101E200020E130E002C020E132E0F801B7FE07C057
:101E300060817181828193810C5F1F4F06C0608138
:101E4000718180E090E00E5F1F4FA4010E94051099
:101E5000A82EA818FB2DFF777F2E76FE0BC0372DFE
:101E60003E7FA51450F474FE0AC072FC08C0372DE2
:101E70003E7E05C0BA2C372D03C0BA2C01C0B52C4C
:101E800034FF0DC0FE01EA0DF11D8081803311F495
:101E9000397E09C032FF06C0B394B39404C0832FC7
:101EA000867809F0B39433FD13C030FF06C05A2C76
:101EB000B31418F4530C5B18B32CB31468F4B701C3
:101EC00080E290E03C870E94CD0FB3943C85F5CF33
:101ED000B31410F43B1801C0312C34FF12C0B70109
:101EE00080E390E03C870E94CD0F3C8532FF17C015
:101EF00031FD03C088E790E002C088E590E0B701BB
:101F00000CC0832F867859F031FF02C08BE201C0EC
:101F100080E237FD8DE2B70190E00E94CD0FA5145D
:101F200038F4B70180E390E00E94CD0F5A94F7CFC8
:101F3000AA94F401EA0DF11D8081B70190E00E949E
:101F4000CD0FA110F5CF332009F451CEB70180E2B7
:101F500090E00E94CD0F3A94F6CFF70186819781E9
:101F600002C08FEF9FEF2C96E2E10C947F10FC01F2
:101F70000590615070400110D8F7809590958E0FB4
:101F80009F1F0895FC016150704001900110D8F727
:101F9000809590958E0F9F1F08950F931F93CF9359
:101FA000DF93FB01238121FD03C08FEF9FEF28C04A
:101FB00022FF16C04681578124813581421753077D
:101FC00044F4A081B1819D012F5F3F4F3183208375
:101FD0008C93268137812F5F3F4F3783268310C034
:101FE000EB01092F182F0084F185E02D0995892B2D
:101FF000E1F68E819F8101969F838E83812F902FA2
:10200000DF91CF911F910F910895FA01AA272830EF
:1020100051F1203181F1E8946F936E7F6E5F7F4FB5
:102020008F4F9F4FAF4FB1E03ED0B4E03CD0670F31
:10203000781F891F9A1FA11D680F791F8A1F911D84
:10204000A11D6A0F711D811D911DA11D20D009F4D4
:1020500068943F912AE0269F11243019305D319316
:10206000DEF6CF010895462F4770405D4193B3E0FF
:102070000FD0C9F7F6CF462F4F70405D4A3318F0A6
:10208000495D31FD4052419302D0A9F7EACFB4E057
:10209000A6959795879577956795BA95C9F700970F
:1020A0006105710508959B01AC010A2E06945795B0
:1020B000479537952795BA95C9F7620F731F841F07
:1020C000951FA01D08952F923F924F925F926F929D
:1020D0007F928F929F92AF92BF92CF92DF92EF92B8
:1020E000FF920F931F93CF93DF93CDB7DEB7CA1B39
:1020F000DB0B0FB6F894DEBF0FBECDBF09942A8864
:10210000398848885F846E847D848C849B84AA840B
:10211000B984C884DF80EE80FD800C811B81AA8198
:10212000B981CE0FD11D0FB6F894DEBF0FBECDBF63
:08213000ED010895F894FFCFC2
:10213800AC01860290029A02A402AE02B802C20260
:10214800CC02D602E002EA02F402AC01FE020A0363
:102158001603230330033D0349033F065B4F666DB7
:102168007D077F6F140100020003000000040005D2
:102178000006000000070008000900000000000039
:102188000000000000000030313233343536373873
:102198003941424344454600454E544552204D4F2F
:1021A8004E5448310A0A00454E5445522054494D70
:1021B8004520494E2054484520464F524D41542011
:1021C800205B30303A30303A30305D200A0A004522
:1021D8004E54455220444159204F46205745454BBF
:1021E80020494E2054484520464F524D4154202006
:1021F800205B30305D200A0A00454E544552204489
:1022080041544520494E2054484520464F524D419F
:10221800542020205B30302F30302F30305D200AA2
:102228000A0054494D452055504441544544210A1B
:10223800205448414E4B20594F55200A0A00544912
:102248004D4520555044415445442120202000202C
:102258002020205468616E6B20596F752E2E2E0039
:102268002564256400454E544552205345434F4E3E
:10227800443A202020002020202020202020202038
:102288002020202000454E544552204D494E55549B
:10229800453A2000454E54455220484F55523A2061
:1022A80020202000454E544552204441593A2020D0
:1022B800202000454E54455220444154453A2020A0
:1022C800202000454E544552204D4F4E54483A2048
:1022D8002000454E54455220594541523A2020206D
:1022E80000544150202320544F204C4F4144005467
:1022F8004150202A20544F2043414E43454C00551D
:1023080050444154494E472054494D452E2E2E00E5
:1023180025003A002C0053595354454D205354413D
:10232800525455502E2E00504C4541534520505282
:102338004553532027412720544F2055504441549A
:102348004520434C4F434B20415420414E59205483
:10235800494D450A0A00204A414E5541525920002C
:10236800202020204645422E20002020204D41528A
:1023780043482000202020415052494C2000202072
:102388002020204D41592000202020204A554E452C
:102398002000202020204A554C592000202041555B
:1023A800475553542000202020534550542E2000D8
:1023B800204F43544F42455220004E4F56454D4200
:1023C80045522000444543454D42455220002020B7
:1023D80053554E4441592020200020204D4F4E4453
:1023E800415920202000202054554553444159206C
:1023F800202000205745444E455344415920200091
:10240800205448555253444159202020002020464A
:1024180052494441592020200020534154555244E8
:08242800415920202020000092
:00000001FF
