S010000055415254746573742E7372656318
S11300000C942B000C9453000C9453000C94530048
S11300100C9453000C9453000C9453000C94530010
S11300200C9453000C9453000C9453000C94530000
S11300300C9453000C9453000C9453000C945300F0
S11300400C9453000C9453000C9453000C945300E0
S11300500C9453002B0211241FBECFE5D4E0DEBF65
S1130060CDBF10E0A0E6B0E0E8EBF4E002C00590FC
S11300700D92AA38B107D9F720E0AAE8B0E001C090
S11300801D92AC38B207E1F710E0CBE2D0E004C037
S11300902197FE010E945402CA32D107C9F70E9477
S11300A0E8010C945A020C9400005F9B02C08CB1CE
S11300B0089580E00895442311F0D89A01C0D89897
S11300C0862F82958F7080FF02C0DA9A01C0DA9879
S11300D081FF02C0DB9A01C0DB9882FF02C0DC9A78
S11300E001C0DC98887011F0DD9A01C0DD98D998C0
S11300F082E08A95F1F700C0D99A92E09A95F1F7D7
S113010000C0D99887EC90E00197F1F700C0000097
S1130110442311F0D89A01C0D89860FF02C0DA9A3B
S113012001C0DA9861FF02C0DB9A01C0DB9862FF6C
S113013002C0DC9A01C0DC9863FF02C0DD9A01C0F2
S1130140DD98D99892E09A95F1F700C0D99A82E0A7
S11301508A95F1F700C0D99887EC90E00197F1F700
S113016000C000000895CF93DF93EC0188819FEFD6
S1130170980F923038F0843029F082E0888380E14F
S1130180898308C089818B7F803121F082E0888354
S113019080E18983D19AD09AD29AD39AD49AD59A63
S11301A08FEB9DE50197F1F700C0000040E063E3A9
S11301B0CE010E945B008FE99FE00197F1F700C038
S11301C0000040E063E3CE010E945B008FE99FE002
S11301D00197F1F700C0000040E063E3CE010E9404
S11301E05B008FE99FE00197F1F700C0000040E059
S11301F062E3CE010E945B008FE99FE00197F1F773
S113020000C0000040E068E2CE010E945B008FE97C
S11302109FE00197F1F700C0000040E066E0CE01E6
S11302200E945B008FE99FE00197F1F700C0000096
S113023040E06CE0CE010E945B008FE99FE00197F3
S1130240F1F700C0000040E061E0CE010E945B00D5
S11302508FE99FE00197F1F700C0000040E062E001
S1130260CE010E945B008FE99FE00197F1F700C087
S11302700000DF91CF910895FC0120812130A1F08D
S1130280223021F4662321F160EC17C02430A9F454
S1130290FC012181203151F0662351F0613051F08D
S11302A0623051F064ED09C060E807C064ED05C038
S11302B060E803C060EC01C064E9640F40E00E94A0
S11302C05B008FE99FE00197F1F700C000000895FB
S11302D060E8F3CFEF92FF920F931F93CF93DF93D6
S11302E0FB01442301F160816623E9F0DC011196EE
S11302F02C912223C1F0D42F8F017C010F5F1F4F5B
S1130300C0E00AC0F80161918F01662361F0D70152
S113031011968C918C1739F040E1C7010E945B0063
S1130320CF5FCD13EFCFDF91CF911F910F91FF904E
S1130330EF900895EF92FF920F931F93CF93DF9363
S11303408C017901FC01C181D0E0C41BD1090E9458
S11303503C014C2FB701C8010E946A01DF91CF9183
S11303601F910F91FF90EF9008952AB128612AB947
S113037020B5266820BDDC01CB01880F991FAA1F78
S1130380BB1F880F991FAA1FBB1F9C01AD01220F21
S1130390331F441F551F220F331F441F551F60E096
S11303A072E18AE790E00E9432028FEF820F89B9EE
S11303B0DA01C9010197A109B109892F9A2FAB2F3D
S11303C0BB2780BD08958BB1881F8827881F089597
S11303D08AE890E00E94B30060E875E280E090E073
S11303E00E94B5012FEF81EE94E0215080409040AF
S11303F0E1F700C000002AE730E040E060E08AE86E
S113040090E00E949A012FEF8EE994E221508040FF
S11304109040E1F700C0000006E710E00EC00E9423
S11304205500C80FD11D8A3041F49E0140E061E0BF
S11304308AE890E00E949A01E8010E94E301811198
S1130440EECF2FEF80E792E0215080409040E1F71B
S113045000C00000F2CFEAE8F0E082E0808380E1AF
S113046081830895A1E21A2EAA1BBB1BFD010DC0B6
S1130470AA1FBB1FEE1FFF1FA217B307E407F50750
S113048020F0A21BB30BE40BF50B661F771F881F2C
S1130490991F1A9469F760957095809590959B01C2
S11304A0AC01BD01CF010895EE0FFF1F0590F4913B
S10B04B0E02D0994F894FFCF3C
S11304B8303132333435363738394142434445468E
S11304C800202020202000307800426C7565746F6D
S10D04D86F7468205265616400002F
S9030000FC
